S018000052647453656E73696E674465766963652E73726563BB
S1130000CCC0000027C50000F1C00000EFC0000014
S1130010EDC00000EBC00000E9C00000E7C0000034
S1130020E5C00000E3C00000E1C00000DFC0000044
S1130030DDC00000DBC00000D9C00000A1C5000085
S1130040D5C00000D3C00000FCC1000046C20000BF
S11300506DC200006DC40000C9C00000C7C000002C
S1130060C5C00000C3C00000C1C00000BFC0000084
S1130070BDC00000BBC0000082C30000D1C30000AB
S1130080F8C30000B3C00000B1C000006E616E0090
S1130090696E660000407A10F35A00A0724E180987
S11300A00010A5D4E80000E87648170000E40B54DB
S11300B0020000CA9A3B000000E1F50500008096AA
S11300C09800000040420F000000A08601000000DC
S11300D0102700000000E803000000006400000096
S11300E000000A00000000000100000000002C765F
S11300F0D888DC674F0823DFC1DFAE59E1B1B7967A
S1130100E5E3E453C63AE651997696E8E6C28426D6
S1130110EB898C9B62ED407C6FFCEFBC9C9F40F2B2
S1130120BAA56FA5F490055A2AF75C936B6CF9672E
S11301306DC11BFCE0E40D47FEF520E6B500D0EDF3
S1130140902E0300943577050080841E080000205B
S11301504E0A000000C80C333333330F986E1283F9
S11301601141EF8D2114893BE65516CFFEE6DB18CD
S1130170D1844B381BF77C1D901DA4BBE424203292
S113018084725E228100C9F124ECA1E53D27BF02FF
S11301906204C1045305E905F40511241FBECFEF21
S11301A0D0E1DEBFCDBF11E0A0E0B1E0E4E9FBE1C6
S11301B000E00BBF02C007900D92A43BB107D9F732
S11301C022E0A4EBB1E001C01D92AB3DB207E1F720
S11301D010E0CCECD0E004C02197FE010E942D0C6D
S11301E0C73CD107C9F742D00C94BE0D09CF6EEAC3
S11301F071E08AE392E089D260E071E08AE392E000
S113020084D262E171E08AE392E07FD267E371E035
S11302108AE392E07AC208958091B501882341F07F
S11302201092B50165E571E08AE392E06EC208952B
S113023081E08093B50168E671E08AE392E065C2EB
S113024008958091B401882341F01092B4016AE7C3
S113025071E08AE392E059C2089581E08093B40189
S11302606DE871E08AE392E050C208951092B501FE
S11302701092B40140E052EC61E070E08AE392E055
S113028087D140E052EC61E070E086EB91E029D048
S113029064E170E081ED92E011D487EC92E07FD3C9
S11302A08EEB92E018D3789461EA71E08AE392E0ED
S11302B02CD261EA71E086EB91E098D098DF8AE372
S11302C092E095D199278332910549F080349105C4
S11302D021F08197A1F78BDFF2CF9EDFF0CFB1DF62
S11302E0EECFCB01BA010ED620E030E040E851E475
S11302F097D69B01AC0160E074E284E79BE46ED581
S113030020E030E040E85FE304D520E030E040E066
S11303105FE300D5CBD57093900069B9549A539A92
S1130320579A559A81E090E00895FC01EE5BFF4FE7
S1130330208130E02F5F3F4F2F733078332334F424
S113034021503109206C3F6F2F5F3F4FFC01ED5B63
S1130350FF4F3081231304C0559A30812317E1F3F2
S1130360DC01AE5BBF4F2C91820F911DFC01EC5B55
S1130370FF4F60832FB7F8948C9190E001968F73B0
S11303809078992324F40197806C9F6F01968C9345
S1130390559A2FBF81E090E00895CF92DF92EF92BB
S11303A0FF920F931F93CF93DF934115510591F063
S11303B07A016C01062F172FC0E0D0E0F80161919B
S11303C08F01C601B2DF892B39F02196EC16FD06A8
S11303D0A9F702C0C0E0D0E0CE01DF91CF911F9118
S11303E00F91FF90EF90DF90CF9008956115710504
S11303F051F0FB0101900020E9F73197AF01461B52
S1130400570BCBCF089580E090E00895FC019CB198
S1130410408150E09A012F5F3F4F2F733078332390
S113042034F421503109206C3F6F2F5F3F4F81819D
S1130430821731F0DF01A40FB51F12969C9320831D
S113044008951F920F920FB60F9211240BB60F92BC
S11304502F933F934F935F936F937F938F939F93C8
S1130460AF93BF93EF93FF9386EB91E0CFDFFF91C0
S1130470EF91BF91AF919F918F917F916F915F9118
S11304804F913F912F910F900BBE0F900FBE0F9085
S11304901F901895FC01ED5BFF4F2081319730814F
S11304A0231302C05598089530E0FC01E20FF31FB6
S11304B0EC5BFF4F4081FC01ED5BFF4F2F5F3F4F33
S11304C02F733078332334F421503109206C3F6F7B
S11304D02F5F3F4F20834CB908951F920F920FB6A0
S11304E00F9211240BB60F922F933F934F935F9368
S11304F06F937F938F939F93AF93BF93EF93FF93E8
S113050086EB91E0C7DFFF91EF91BF91AF919F918F
S11305108F917F916F915F914F913F912F910F90A8
S11305200BBE0F900FBE0F901F9018951F920F9245
S11305300FB60F9211240BB60F922F933F934F9344
S11305405F936F937F938F939F93AF93BF93EF9337
S1130550FF9386EB91E09EDFFF91EF91BF91AF9106
S11305609F918F917F916F915F914F913F912F91C7
S11305700F900BBE0F900FBE0F901F901895E6EBD7
S1130580F1E0108211821092F8011092F90108959D
S1130590CB01BA01B7D420E030E040E851E440D5C3
S11305A09B01AC0160E074E284E79BE417D420E093
S11305B030E040E85FE3ADD320E030E040E05FE3CB
S11305C0A9D374D47093980060939900EAE9F0E099
S11305D0808180618083808188608083808180685D
S11305E0808380818062808381E090E00895FC01B3
S11305F0818190818917C9F0DF01A80FB11D12967E
S11306008C919FB7F894218130E02F5F3F4F2F7377
S11306103078332334F421503109206C3F6F2F5F3D
S11306203F4F21839FBF90E008958FEF9FEF089580
S1130630FC01EE5BFF4F208130E02F5F3F4F2F73B3
S11306403078332334F421503109206C3F6F2F5F0D
S11306503F4F322FFC01ED5BFF4F208132130BC063
S1130660EAE9F0E0DC01AD5BBF4F2081206220832A
S11306702C913217D1F3DC01AE5BBF4F2C91820F6A
S1130680911DFC01EC5BFF4F60832FB7F8948C91B4
S113069090E001968F739078992324F40197806CED
S11306A09F6F01968C93EAE9F0E0808180628083F9
S11306B02FBF81E090E00895CF92DF92EF92FF92F6
S11306C00F931F93CF93DF934115510591F07A0156
S11306D06C01062F172FC0E0D0E0F80161918F0163
S11306E0C601A6DF892B39F02196EC16FD06A9F781
S11306F002C0C0E0D0E0CE01DF91CF911F910F91F5
S1130700FF90EF90DF90CF9008956115710551F03F
S1130710FB0101900020E9F73197AF01461B570B0D
S1130720CBCF089580E090E00895CF93FC01C09171
S11307309C00408150E09A012F5F3F4F2F73307827
S1130740332334F421503109206C3F6F2F5F3F4F26
S11307508181821731F0DF01A40FB51F1296CC936B
S113076020836C2F8AE392E063DF8091B4018823B5
S113077021F06C2F86EB91E0D8DDCF9108951F9284
S11307800F920FB60F9211240BB60F922F933F9333
S11307904F935F936F937F938F939F93AF93BF9385
S11307A0EF93FF938AE392E0C0DFFF91EF91BF9153
S11307B0AF919F918F917F916F915F914F913F91F5
S11307C02F910F900BBE0F900FBE0F901F90189596
S11307D0FC01ED5BFF4F208131973081231306C06C
S11307E0EAE9F0E080818F7D8083089530E0FC01A8
S11307F0E20FF31FEC5BFF4F4081FC01ED5BFF4F09
S11308002F5F3F4F2F733078332334F42150310955
S1130810206C3F6F2F5F3F4F208340939C000895CF
S11308201F920F920FB60F9211240BB60F922F93B3
S11308303F934F935F936F937F938F939F93AF9364
S1130840BF93EF93FF938AE392E0C2DFFF91EF91AE
S1130850BF91AF919F918F917F916F915F914F91D4
S11308603F912F910F900BBE0F900FBE0F901F90D2
S113087018951F920F920FB60F9211240BB60F9278
S11308802F933F934F935F936F937F938F939F9394
S1130890AF93BF93EF93FF938AE392E099DFFF91C5
S11308A0EF91BF91AF919F918F917F916F915F91E4
S11308B04F913F912F910F900BBE0F900FBE0F9051
S11308C01F901895EAE3F2E01082118210927C02E4
S11308D010927D020895329A319A309A3E9A379A4C
S11308E008950F931F93FC01CB0105811681438169
S11308F0548120E030E060E070E07AD11F910F91E4
S11309000895CF93DF93EC0164B175B178876F8359
S1130910E8DFC2969C0140E050E068ED79E580E0B4
S113092090E06AD73A832983369ADF91CF9108956C
S11309301F920F920FB60F9211240BB60F922F93A2
S11309403F934F935F936F937F938F939F93AF9353
S1130950BF93EF93FF938EEB92E0D3DFFF91EF9180
S1130960BF91AF919F918F917F916F915F914F91C3
S11309703F912F910F900BBE0F900FBE0F901F90C1
S11309801895EEEBF2E01082128211828FEF93E061
S11309909483838388E893E1968385830895EAE6C4
S11309A0F0E080818260808380818160808389B768
S11309B0816089BF81E090E008950F931F93CF93E6
S11309C0DF93CDB7DEB72A970FB6F894DEBF0FBE1C
S11309D0CDBFFC0140815181628173814F5F5F4FC4
S11309E06F4F7F4F40835183628373832091B4019F
S11309F0211125C08C0181ED92E074D0F80164834B
S1130A0075838683978386E390E091878087BE0110
S1130A106F5F7F4FEFD0BE016F5F7F4F8AE392E03D
S1130A2074DE8091B501882351F060EB71E08AE3B4
S1130A3092E06BDE60EB71E086EB91E0D7DC2A9606
S1130A400FB6F894DEBF0FBECDBFDF91CF911F91DB
S1130A500F9108951F920F920FB60F9211240BB6A7
S1130A600F922F933F934F935F936F937F938F9343
S1130A709F93AF93BF93EF93FF9387EC92E09DDF37
S1130A80FF91EF91BF91AF919F918F917F916F9162
S1130A905F914F913F912F910F900BBE0F900FBE1E
S1130AA00F901F901895E7ECF2E0108211821282E9
S1130AB0138214821582168217820895FC017187AD
S1130AC0608783B7846083BF83B7886083BF12BEA7
S1130AD089EF81BF87B7826087BF089587B78D7F0D
S1130AE087BF0895FC01608171818281938108959B
S1130AF0CF93DF93FC0180819181A281B381BC01FA
S1130B00CD016F5F7F4F8F4F9F4F608371838283CF
S1130B1093832091B401211130C0EF0120853185E8
S1130B2040E050E069D6672B682B692B71F4809103
S1130B30B501882351F062EB71E08AE392E0E5DDD0
S1130B4062EB71E086EB91E051DC688179818A8106
S1130B509B8128EE33E040E050E04ED6672B682BB3
S1130B60692B59F48C819D81AE81BF810196A11DB1
S1130B70B11D8C839D83AE83BF83DF91CF91089594
S1130B801F920F920FB60F9211240BB60F922F9350
S1130B903F934F935F936F937F938F939F93AF9301
S1130BA0BF93EF93FF9381ED92E0A2DFFF91EF916A
S1130BB0BF91AF919F918F917F916F915F914F9171
S1130BC03F912F910F900BBE0F900FBE0F901F906F
S1130BD01895E1EDF2E010821182128213821482E0
S1130BE0158216821782089581ED92E077CF0895D9
S1130BF0C9010895AC01FB019C01329522952F7027
S1130C0023273F702327A7E4B3E018D6969587954A
S1130C10969587959695879520E3280F208360E124
S1130C2077E2869F9001879F300D969F300D1124A7
S1130C30CA01821B930B9C013695279536952795FF
S1130C4036952795A5ECB0E2F9D5929582958F70EB
S1130C5089279F708927805D81839A01369527951E
S1130C603695279536952795E9D5929582958F7077
S1130C7089279F70892768EE73E0869F9001879F7C
S1130C80300D969F300D1124CA01821B930B9C01D9
S1130C903695279536952795ABE7B4E1CFD596954C
S1130CA08795805D82839A01369527953695279599
S1130CB0C5D59695879564E6689F9001699F300D28
S1130CC01124CA01821B930B9C01ADECBCECB6D57C
S1130CD0969587959695879596958795805D838358
S1130CE09A01ACD59695879596958795969587950F
S1130CF09C01220F331F880F991F880F991F880F9B
S1130D00991F820F931F481B590B405D4483158222
S1130D1008955058BB27AA270ED048C139D130F0C6
S1130D203ED120F031F49F3F11F41EF42EC10EF495
S1130D30E095E7FB24C1E92F4AD180F3BA17620793
S1130D4073078407950718F071F49EF562C10EF4D9
S1130D50E0950B2EBA2FA02D0B01B90190010C01C7
S1130D60CA01A0011124FF27591B99F0593F50F4DF
S1130D70503E68F11A16F040A22F232F342F442737
S1130D80585FF3CF469537952795A795F04053952F
S1130D90C9F77EF41F16BA0B620B730B840BBAF0FF
S1130DA09150A1F0FF0FBB1F661F771F881FC2F76A
S1130DB00EC0BA0F621F731F841F48F4879577957E
S1130DC06795B795F7959E3F08F0B3CF9395880F35
S1130DD008F09927EE0F9795879508950CD0E6C0F3
S1130DE0DED040F0D5D030F021F45F3F19F0C7C019
S1130DF0511110C1CAC0EBD098F39923C9F35523FC
S1130E00B1F3951B550BBB27AA27621773078407F9
S1130E1038F09F5F5F4F220F331F441FAA1FA9F3AF
S1130E2033D00E2E3AF0E0E830D091505040E695A1
S1130E30001CCAF729D0FE2F27D0660F771F881F02
S1130E40BB1F261737074807AB07B0E809F0BB0BF1
S1130E50802DBF01FF2793585F4F2AF09E3F510515
S1130E6068F08DC0D7C05F3FECF3983EDCF3869505
S1130E7077956795B795F7959F5FC9F7880F911D8B
S1130E809695879597F90895E1E0660F771F881F77
S1130E90BB1F621773078407BA0720F0621B730B2A
S1130EA0840BBA0BEE1F88F7E095089598D088F06C
S1130EB09F5790F0B92F9927B751A0F0D1F0660F42
S1130EC0771F881F991F1AF0BA95C9F712C0B1305D
S1130ED081F09FD0B1E008959CC0672F782F8827B8
S1130EE0B85F39F0B93FCCF3869577956795B3959C
S1130EF0D9F73EF490958095709561957F4F8F4F0B
S1130F009F4F0895E89409C097FB3EF4909580950F
S1130F10709561957F4F8F4F9F4F9923A9F0F92FBB
S1130F2096E9BB279395F695879577956795B79539
S1130F30F111F8CFFAF4BB0F11F460FF1BC06F5F1F
S1130F407F4F8F4F9F4F16C0882311F096E911C031
S1130F50772321F09EE8872F762F05C0662371F052
S1130F6096E8862F70E060E02AF09A95660F771F66
S1130F70881FDAF7880F9695879597F9089597F95A
S1130F809F6780E870E060E008959FEF80EC08952B
S1130F9000240A9416161706180609060895002454
S1130FA00A9412161306140605060895092E0394CE
S1130FB0000C11F4882352F0BB0F40F4BF2B11F442
S1130FC060FF04C06F5F7F4F8F4F9F4F089557FDA1
S1130FD09058440F551F59F05F3F71F04795880FA3
S1130FE097FB991F61F09F3F79F08795089512163A
S1130FF013061406551FF2CF4695F1DF08C01616E6
S113100017061806991FF1CF869571056105089496
S11310100895E894BB2766277727CB0197F90895AD
S11310200BD0C4CFB5DF28F0BADF18F0952309F050
S1131030A6CFABCF1124EECFCADFA0F3959FD1F397
S1131040950F50E0551F629FF001729FBB27F00D72
S1131050B11D639FAA27F00DB11DAA1F649F6627C7
S1131060B00DA11D661F829F2227B00DA11D621F16
S1131070739FB00DA11D621F839FA00D611D221FD0
S1131080749F3327A00D611D231F849F600D211DB4
S1131090822F762F6A2F11249F5750408AF0E1F057
S11310A088234AF0EE0FFF1FBB1F661F771F881FA0
S11310B091505040A9F79E3F510570F060CFAACFE0
S11310C05F3FECF3983EDCF3869577956795B7958B
S11310D0F795E7959F5FC1F7FE2B880F911D9695B5
S11310E0879597F908952F923F924F925F926F924E
S11310F07F928F929F92AF92BF92CF92DF92EF92A4
S1131100FF920F931F93CF93DF93CDB7DEB7609712
S11311100FB6F894DEBF0FBECDBF7C011B016A0180
S1131120FC0117821682838181FF2AC39E012F5FEF
S11311303F4F3901F7019381F10193FD859193FFAD
S113114081911F01882309F417C3853239F493FD73
S1131150859193FF81911F01853231F4B70190E0AD
S113116073D456016501E6CF10E0512C912CFFE1B8
S1131170F915D8F08B3279F038F4803279F0833273
S1131180A1F4F92DF0612EC08D3261F0803369F441
S1131190292D21602DC0392D3260932E892D846034
S11311A0982E2AC0E92DE86015C097FC2DC020EDCB
S11311B0280F2A3088F496FE06C03AE0139F200DCB
S11311C01124122F19C08AE0589E200D1124522E8A
S11311D0E92DE0629E2E10C08E3231F496FCCCC212
S11311E0F92DF0649F2E08C08C3621F4292D206837
S11311F0922E02C0883641F4F10193FD859193FF4C
S113120081911F018111B3CF9BEB980F933020F490
S1131210992D9061805E07C09BE9980F933008F088
S113122059C1992D9F7E96FF16E09F73992E85369E
S113123019F49064992E08C0863621F4392F306849
S1131240932E02C01111115097FE07C01C3350F4A5
S113125044244394410E27E00BC0183038F027E0B3
S113126017E005C027E09CE3492E02C0212F412C42
S1131270560184E0A80EB11CF6016081718182815F
S11312809381042DA301F2D26C01F981FC87F0FF54
S113129002C0F3FF06C091FC06C092FE06C000E245
S11312A005C00DE203C00BE201C000E08C858C7028
S11312B019F0011143C280C297FE10C04C0CFC858A
S11312C0F4FF04C08A81813309F44A94141474F538
S11312D028E0241578F588E0482E2CC096FC2AC016
S11312E0812F90E08C159D059CF03CEFC3163FEFD9
S11312F0D30674F0892D8068982E0AC0E2E0F0E0ED
S1131300EC0FFD1FE10FF11D8081803319F41150A2
S11313101111F4CF97FE0EC044244394410E812F43
S113132090E0C816D9062CF41C1904C04424439434
S113133001C010E097FE06C01C141D0434F4C6015D
S1131340019605C085E090E002C081E090E00111C3
S11313500196112331F0212F30E02F5F3F4F820F90
S1131360931F252D30E08217930714F4581A01C0F7
S1131370512C892D897041F4552031F0B70180E258
S113138090E062D35A94F8CF002321F0B701802F64
S113139090E05AD393FC08C0552031F0B70180E3A4
S11313A090E052D35A94F8CF97FE4AC04601D7FE34
S11313B002C0812C912CC60188199909F301E80F08
S11313C0F91FFE87ED87960124193109388B2F8781
S11313D0012F10E01195019511093FEF8316930633
S11313E021F4B7018EE290E02FD3C814D9044CF055
S11313F08F8598898815990524F4ED85FE8581816A
S113140001C080E3F1E08F1A91082D853E852F5F9E
S11314103F4F3E872D878016910624F0B70190E058
S113142013D3DBCFC814D90441F49A81963320F442
S1131430953319F43C8534FF81E3B70190E048C04B
S11314408A81813319F09C859F7E9C87B70190E047
S1131450FBD2111105C094FC16C085E690E015C0BE
S1131460B7018EE290E0F0D21E5F82E001E0080F47
S1131470F301E80FF11D8081B70190E0E5D2802FE0
S11314800113F4CFE8CF85E490E0B701DDD2D7FCB7
S113149006C0C114D10441F4EC85E4FF05C0D19425
S11314A0C194D1088DE201C08BE2B70190E0CCD2A7
S11314B080E32AE0C216D1042CF08F5FFAE0CF1A41
S11314C0D108F7CFB70190E0BFD2B701C601C096EB
S11314D0BBD249C1833631F0833779F0833509F0C3
S11314E052C01FC0560132E0A30EB11CF601808128
S11314F0898301E010E0630111C05601F2E0AF0EF0
S1131500B11CF601C080D18096FE03C0612F70E04B
S113151002C06FEF7FEFC6018CD28C01F92DFF77EB
S113152013C0560122E0A20EB11CF601C080D18086
S113153096FE03C0612F70E002C06FEF7FEFC6011B
S11315406DD28C01F92DF0689F2EF3FD18C0852D06
S113155090E00817190798F4B70180E290E074D27C
S11315605A94F5CFF60197FC859197FE81916F010E
S1131570B70190E069D251105A9401501109011534
S1131580110581F7F0C0843611F0893659F55601FA
S113159097FE09C024E0A20EB11CF601608171819E
S11315A0828193810AC0F2E0AF0EB11CF601608122
S11315B07181072E000C880B990BF92DFF769F2E55
S11315C097FF09C090958095709561957F4F8F4FD7
S11315D09F4FF0689F2E2AE030E0A30171D2C82EFD
S11315E0C6183EC0092D853721F40F7E2AE030E06D
S11315F01DC0097F8F3691F018F4883559F0BCC0AE
S1131600803719F0883711F0B7C0006104FF09C0B2
S1131610046007C094FE08C0066006C028E030E0FD
S113162005C020E130E002C020E132E0560107FFAE
S113163009C084E0A80EB11CF60160817181828129
S1131640938108C0F2E0AF0EB11CF6016081718194
S113165080E090E0A30134D2C82EC6180F77902EF4
S113166096FE0BC0092D0E7FC11650F494FE0AC0DD
S113167092FC08C0092D0E7E05C0DC2C092D03C088
S1131680DC2C01C0D12E04FF0DC0FE01EC0DF11DB8
S11316908081803311F4097E09C002FF06C0D3940F
S11316A0D39404C0802F867809F0D39403FD10C02E
S11316B000FF06C01C2DD51478F4150D1D190CC09F
S11316C0D51450F4B70180E290E0BED1D394F8CFA2
S11316D0D51410F45D1801C0512C04FF0FC0B701DC
S11316E080E390E0B1D102FF16C001FD03C088E79A
S11316F090E002C088E590E0B7010CC0802F8678A6
S113170051F001FF02C08BE201C080E207FD8DE2CF
S1131710B70190E099D1C11630F4B70180E390E0AD
S113172093D11150F8CFCA94F301EC0DF11D8081CF
S1131730B70190E089D1C110F6CF15C0F4E0F515DA
S113174050F584E0581A93FE1EC0011125C02C8563
S113175023FF27C00CE810E0392D3071932EF801D7
S11317608491811121C0552009F4FCCCB70180E299
S113177090E06AD15A94F7CFF7018681978123C00C
S11317808FEF9FEF20C0B70180E290E05DD15A94C3
S11317905110F9CFDACF512CB701802F90E054D1FA
S11317A0D6CF00E910E0D8CF91108052B70190E075
S11317B04BD10F5F1F4FD3CF23E0251510F483E0E7
S11317C0C1CF512CC4CF60960FB6F894DEBF0FBEC4
S11317D0CDBFDF91CF911F910F91FF90EF90DF90DC
S11317E0CF90BF90AF909F908F907F906F905F90BD
S11317F04F903F902F900895A1E21A2EAA1BBB1B75
S1131800FD010DC0AA1FBB1FEE1FFF1FA217B307C8
S1131810E407F50720F0A21BB30BE40BF50B661FDE
S1131820771F881F991F1A9469F7609570958095A2
S113183090959B01AC01BD01CF010895A29FB00119
S1131840B39FC001A39F700D811D1124911DB29FF0
S1131850700D811D1124911D0895EE0FFF1F0024AA
S1131860001C0BBE0790F691E02D0994283008F077
S113187027E03327DA01990F311D87FD9160009627
S11318806105710539F432602E5F3D9330E32A958A
S1131890E1F708959F3F30F080387105610509F044
S11318A03C5F3C5F3D93913008F08068911DDF936D
S11318B0CF931F930F93FF92EF92192F987F9695D2
S11318C0E92F96959695E90FFF27E251FF4F992747
S11318D03327EE24FF24A701E70105900894079419
S11318E028F4360FE71EF81E491F511D660F771F97
S11318F0881F991F0694A1F70590079428F4E70E12
S1131900F81E491F561FC11D770F881F991F661F98
S11319100694A1F70590079428F4F80E491F561F62
S1131920C71FD11D880F991F661F771F0694A1F743
S11319300590079420F4490F561FC71FD81F990F0D
S1131940661F771F881F0694A9F784911095177056
S113195041F0D695C79557954795F794E7941A950E
S1131960C1F7E4E9F0E0689415901591359165911B
S1131970959105907FE27395E118F10A430B560B9C
S1131980C90BD009C0F7E10CF11E431F561FC91F34
S1131990D01D7EF4703311F48A95E6CFE89401509B
S11319A030F0080F0AF40027021708F4202F2395BB
S11319B0022F7A3328F079E37D932A95E9F710C052
S11319C07D932A9589F6069497956795379517958B
S11319D01794E118F10A430B560BC90BD00998F080
S11319E023957E9173957A3308F070E37C932013EA
S11319F0B8F77E9170617D9330F0839571E37D93A8
S1131A0070E32A95E1F71124EF90FF900F911F9155
S1131A10CF91DF91992787FD90950895FC0105905A
S1131A20615070400110D8F7809590958E0F9F1FDC
S1131A300895FC016150704001900110D8F7809521
S1131A4090958E0F9F1F08950F931F93CF93DF934D
S1131A50FB01238121FD03C08FEF9FEF2CC022FFE8
S1131A6016C046815781248135814217530744F4B7
S1131A70A081B1819D012F5F3F4F318320838C93DF
S1131A80268137812F5F3F4F3783268314C08B0114
S1131A90EC01FB010084F185E02D0995892BE1F629
S1131AA0D80116968D919C911797019617969C9341
S1131AB08E931697CE01DF91CF911F910F910895C8
S1131AC0FA01AA27283051F1203181F1E8946F936B
S1131AD06E7F6E5F7F4F8F4F9F4FAF4FB1E03ED011
S1131AE0B4E03CD0670F781F891F9A1FA11D680FAF
S1131AF0791F8A1F911DA11D6A0F711D811D911DE2
S1131B00A11D20D009F468943F912AE0269F112456
S1131B103019305D3193DEF6CF010895462F4770BA
S1131B20405D4193B3E00FD0C9F7F6CF462F4F7015
S1131B30405D4A3318F0495D31FD4052419302D073
S1131B40A9F7EACFB4E0A695979587957795679519
S1131B50BA95C9F700976105710508959B01AC0119
S1131B600A2E06945795479537952795BA95C9F740
S1131B70620F731F841F951FA01D089510E0CCEC05
S1131B80D0E003C0FE0169DE2196CD3CD107D1F738
S1071B90F894FFCFF3
S1131B9421202D2068656C70206D65737361676501
S1131BA40A0040202D2073686F772D7570207365AB
S1131BB46E73696E67206163746976697479206FE2
S1131BC46E2F6F66660A0023202D206D616E756189
S1131BD46C206576656E74206D6F6465206F6E2F5E
S1131BE46F66660A000A73686F772D7570206469DE
S1131BF47361626C65640A000A73686F772D75708B
S1131C0420656E61626C65640A000A6578697420F3
S1131C146D616E75616C206D6F64650A000A656E92
S1131C24746572206D616E75616C206D6F64650AF4
S1131C34000A68656C6C6F20776F726C64210A000B
S1071C4452005400F2
S9030000FC
