:10000000CCC00000A3C50000F1C00000EFC000009C
:10001000EDC00000EBC00000E9C00000E7C0000038
:10002000E5C00000E3C00000E1C00000DFC0000048
:10003000DDC00000DBC00000D9C0000093C6000096
:10004000D5C00000D3C0000017C2000061C200008C
:1000500088C20000E9C40000C9C00000C7C0000099
:10006000C5C00000C3C00000C1C00000BFC0000088
:10007000BDC00000BBC000009DC30000ECC3000079
:1000800013C40000B3C00000B1C000006E616E0078
:10009000696E660000407A10F35A00A0724E18098B
:1000A0000010A5D4E80000E87648170000E40B54DF
:1000B000020000CA9A3B000000E1F50500008096AE
:1000C0009800000040420F000000A08601000000E0
:1000D000102700000000E80300000000640000009A
:1000E00000000A00000000000100000000002C7663
:1000F000D888DC674F0823DFC1DFAE59E1B1B7967E
:10010000E5E3E453C63AE651997696E8E6C28426DA
:10011000EB898C9B62ED407C6FFCEFBC9C9F40F2B6
:10012000BAA56FA5F490055A2AF75C936B6CF96732
:100130006DC11BFCE0E40D47FEF520E6B500D0EDF7
:10014000902E0300943577050080841E080000205F
:100150004E0A000000C80C333333330F986E1283FD
:100160001141EF8D2114893BE65516CFFEE6DB18D1
:10017000D1844B381BF77C1D901DA4BBE424203296
:1001800084725E228100C9F124ECA1E53D27DA02E8
:100190007D043D05CF05DB06E60611241FBECFEF2B
:1001A000D0E1DEBFCDBF12E0A0E0B1E0E4EAFEE1C5
:1001B00000E00BBF02C007900D92A431B107D9F740
:1001C00023E0A4E1B2E001C01D92AF33B207E1F732
:1001D00010E0CCECD0E004C02197FE010E94B50DE8
:1001E000C73CD107C9F74CD00C94460F09CF6CED32
:1001F00071E08AE992E0A4D260E071E08AE992E0DD
:100200009FD262E171E08AE992E09AD267E371E0FD
:100210008AE992E095D265E571E08AE992E090D2B0
:100220006CE671E08AE992E08BC208958091150234
:10023000882341F01092150263E871E08AE992E0A8
:100240007FC2089581E08093150266E971E08AE932
:1002500092E076C2089580911402882341F01092B2
:10026000140268EA71E08AE992E06AC2089581E0C6
:10027000809314026BEB71E08AE992E061C2089509
:10028000109215021092140240E052EC61E070E00E
:100290008AE992E098D140E052EC61E070E086E1BA
:1002A00092E03AD06EE170E085E393E07CD48BE29B
:1002B00093E0F3D38EE193E03ED378946FEC71E05A
:1002C0008AE992E03DD26FEC71E086E192E0A9D03C
:1002D0008EDF8AE992E0A6D199278B329105A1F0B1
:1002E00034F48132910551F0839761F0F2CF8D3271
:1002F000910571F08034910519F0EBCF78DFE9CFEB
:1003000095DFE7CFA8DFE5CF85E393E066D4E1CFC3
:1003100085E393E090D4DDCFCB01BA0162D720E032
:1003200030E040E851E4EBD79B01AC0160E074E2BF
:1003300084E79BE4C2D620E030E040E85FE358D693
:1003400020E030E040E05FE354D61FD77093900088
:1003500069B9549A539A579A559A81E090E0089552
:10036000FC01EE5BFF4F208130E02F5F3F4F2F738A
:100370003078332334F421503109206C3F6F2F5FE4
:100380003F4FFC01ED5BFF4F3081231304C0559AB2
:1003900030812317E1F3DC01AE5BBF4F2C91820F5C
:1003A000911DFC01EC5BFF4F60832FB7F8948C919B
:1003B00090E001968F739078992324F40197806CD4
:1003C0009F6F01968C93559A2FBF81E090E008951E
:1003D000CF92DF92EF92FF920F931F93CF93DF9311
:1003E0004115510591F07A016C01062F172FC0E0DD
:1003F000D0E0F80161918F01C601B2DF892B39F09D
:100400002196EC16FD06A9F702C0C0E0D0E0CE01AF
:10041000DF91CF911F910F91FF90EF90DF90CF90E0
:1004200008956115710551F0FB0101900020E9F775
:100430003197AF01461B570BCBCF089580E090E07A
:100440000895FC019CB1408150E09A012F5F3F4F1D
:100450002F733078332334F421503109206C3F6FEF
:100460002F5F3F4F8181821731F0DF01A40FB51F4D
:1004700012969C93208308951F920F920FB60F92AD
:1004800011240BB60F922F933F934F935F936F936B
:100490007F938F939F93AF93BF93EF93FF9386E1E7
:1004A00092E0CFDFFF91EF91BF91AF919F918F913C
:1004B0007F916F915F914F913F912F910F900BBE64
:1004C0000F900FBE0F901F901895FC01ED5BFF4F32
:1004D000208131973081231302C05598089530E070
:1004E000FC01E20FF31FEC5BFF4F4081FC01ED5B71
:1004F000FF4F2F5F3F4F2F733078332334F4215059
:100500003109206C3F6F2F5F3F4F20834CB9089516
:100510001F920F920FB60F9211240BB60F922F93CA
:100520003F934F935F936F937F938F939F93AF937B
:10053000BF93EF93FF9386E192E0C7DFFF91EF91C6
:10054000BF91AF919F918F917F916F915F914F91EB
:100550003F912F910F900BBE0F900FBE0F901F90E9
:1005600018951F920F920FB60F9211240BB60F928F
:100570002F933F934F935F936F937F938F939F93AB
:10058000AF93BF93EF93FF9386E192E09EDFFF91DD
:10059000EF91BF91AF919F918F917F916F915F91FB
:1005A0004F913F912F910F900BBE0F900FBE0F9068
:1005B0001F901895E6E1F2E0108211821092580225
:1005C000109259020895CB01BA010BD620E030E019
:1005D00040E851E494D69B01AC0160E074E284E70A
:1005E0009BE46BD520E030E040E85FE301D520E0FC
:1005F00030E040E05FE3FDD4C8D57093980060938D
:100600009900EAE9F0E080818061808380818860E0
:10061000808380818068808380818062808381E0A4
:1006200090E00895FC01818190818917C9F0DF0174
:10063000A80FB11D12968C919FB7F894218130E0DC
:100640002F5F3F4F2F733078332334F4215031091B
:10065000206C3F6F2F5F3F4F21839FBF90E0089535
:100660008FEF9FEF0895FC01EE5BFF4F208130E09C
:100670002F5F3F4F2F733078332334F421503109EB
:10068000206C3F6F2F5F3F4F322FFC01ED5BFF4F20
:10069000208132130BC0EAE9F0E0DC01AD5BBF4F13
:1006A0002081206220832C913217D1F3DC01AE5BD4
:1006B000BF4F2C91820F911DFC01EC5BFF4F6083BB
:1006C0002FB7F8948C9190E001968F7390789923CE
:1006D00024F40197806C9F6F01968C93EAE9F0E017
:1006E0008081806280832FBF81E090E00895CF9267
:1006F000DF92EF92FF920F931F93CF93DF934115F9
:10070000510591F07A016C01062F172FC0E0D0E05F
:10071000F80161918F01C601A6DF892B39F021967E
:10072000EC16FD06A9F702C0C0E0D0E0CE01DF91D3
:10073000CF911F910F91FF90EF90DF90CF90089590
:100740006115710551F0FB0101900020E9F7319727
:10075000AF01461B570BCBCF089580E090E0089582
:10076000CF93FC01C0919C00408150E09A012F5F23
:100770003F4F2F733078332334F421503109206CEC
:100780003F6F2F5F3F4F8181821731F0DF01A40F50
:10079000B51F1296CC9320836C2F8AE992E063DF19
:1007A00080911402882321F06C2F86E192E0D8DD3D
:1007B000CF9108951F920F920FB60F9211240BB68E
:1007C0000F922F933F934F935F936F937F938F93EA
:1007D0009F93AF93BF93EF93FF938AE992E0C0DFBB
:1007E000FF91EF91BF91AF919F918F917F916F9109
:1007F0005F914F913F912F910F900BBE0F900FBEC5
:100800000F901F901895FC01ED5BFF4F20813197F1
:100810003081231306C0EAE9F0E080818F7D808378
:10082000089530E0FC01E20FF31FEC5BFF4F4081C5
:10083000FC01ED5BFF4F2F5F3F4F2F733078332369
:1008400034F421503109206C3F6F2F5F3F4F2083DC
:1008500040939C0008951F920F920FB60F9211249F
:100860000BB60F922F933F934F935F936F937F93AA
:100870008F939F93AF93BF93EF93FF938AE992E097
:10088000C2DFFF91EF91BF91AF919F918F917F91C7
:100890006F915F914F913F912F910F900BBE0F90F1
:1008A0000FBE0F901F9018951F920F920FB60F92C8
:1008B00011240BB60F922F933F934F935F936F9337
:1008C0007F938F939F93AF93BF93EF93FF938AE9A7
:1008D00092E099DFFF91EF91BF91AF919F918F913E
:1008E0007F916F915F914F913F912F910F900BBE30
:1008F0000F900FBE0F901F901895EAE9F2E010825A
:1009000011821092DC021092DD020895FC01108227
:10091000128211828FEF93E0A0E0B0E08383948392
:10092000A583B68388E893E1A0E0B0E08783908751
:10093000A187B2870895329A319A309A3E9A379AAF
:100940000895FC0197B1907F97B997B18081892B69
:1009500087B9369A3699FECF84B195B10895AF9292
:10096000BF92CF92DF92EF92FF920F931F93FC0101
:10097000E380F4800581168180E090E022852F934A
:1009800021852F9320852F9327812F93A12CB12C84
:10099000650120E030E0A9011DD20F900F900F906B
:1009A0000F901F910F91FF90EF90DF90CF90BF902D
:1009B000AF900895CF93DF93EC01C3DFBC01CE016C
:1009C000CEDFC2969C0140E050E068ED79E580E022
:1009D00090E00E947A0DC901DF91CF910895CF93E5
:1009E000DF93EC0164B175B17C876B87B8DFC29689
:1009F0009C0140E050E068ED79E580E090E00E94E5
:100A00007A0D3A8329838091140281110AC0809162
:100A10001502882329F06EED71E08AE992E090DEFC
:100A2000369ADF91CF9108951F920F920FB60F92D1
:100A300011240BB60F922F933F934F935F936F93B5
:100A40007F938F939F93AF93BF93EF93FF938EE129
:100A500093E0C5DFFF91EF91BF91AF919F918F918F
:100A60007F916F915F914F913F912F910F900BBEAE
:100A70000F900FBE0F901F9018958EE193E046CF18
:100A80000895FC0110821182128213821482158251
:100A900016821782118610860895EAE6F0E08081BA
:100AA0008260808380818160808389B7816089BF13
:100AB00081E090E00895FC01808591850895CF92B2
:100AC000DF92EF92FF92CF93DF93FC01408151813F
:100AD000628173814F5F5F4F6F4F7F4F40835183C0
:100AE0006283738320911402211129C0EC0180914B
:100AF0001502882329F060EE71E08AE992E020DE99
:100B000085E393E064D06B017C018C819D81AE8193
:100B1000BF81C816D906EA06FB0688F0A701960130
:100B2000281B390B4A0B5B0B60ED77E080E090E00F
:100B3000E1D739872887CC82DD82EE82FF82DF9180
:100B4000CF91FF90EF90DF90CF9008951F920F927A
:100B50000FB60F9211240BB60F922F933F934F9322
:100B60005F936F937F938F939F93AF93BF93EF9315
:100B7000FF938BE293E0A3DFFF91EF91BF91AF91E1
:100B80009F918F917F916F915F914F913F912F91A5
:100B90000F900BBE0F900FBE0F901F9018958BE219
:100BA00093E06FCF0895FC017187608783B78460FD
:100BB00083BF83B7886083BF12BE89EF81BF87B7C9
:100BC000826087BF089587B78D7F87BF0895FC0136
:100BD00060817181828193810895CF93DF93CDB736
:100BE000DEB72A970FB6F894DEBF0FBECDBFFC016B
:100BF00020853185C901019691878087BE016F5F8D
:100C00007F4F67D162EE71E08AE992E099DDBE0123
:100C10006F5F7F4F8AE992E093DD6CED71E08AE9C6
:100C200092E08EDD2A960FB6F894DEBF0FBECDBFE0
:100C3000DF91CF910895CF93DF93CDB7DEB72A9799
:100C40000FB6F894DEBF0FBECDBFFC012085318505
:100C50002230310530F460EF71E08AE992E070DD16
:100C60001AC021503109FC0131872087BE016F5F16
:100C70007F4FC9012ED162EE71E08AE992E060DD1A
:100C8000BE016F5F7F4F8AE992E05ADD6CED71E043
:100C90008AE992E055DD2A960FB6F894DEBF0FBEC2
:100CA000CDBFDF91CF9108950F931F93CF93DF9323
:100CB000CDB7DEB72A970FB6F894DEBF0FBECDBF13
:100CC000FC0140815181628173814F5F5F4F6F4FA3
:100CD0007F4F4083518362837383209114022111DB
:100CE00036C08C0180911502882329F062E172E000
:100CF0008AE992E025DDF8012085318540E050E069
:100D00006081718182819381F5D6672B682B692B75
:100D1000F1F48BE293E0CFDEAE014F5F5F4F682FBF
:100D200086E594D0BE016F5F7F4F86E192E079DB6C
:100D30008EE193E03FDEAE014F5F5F4F682F84E4AA
:100D400085D0BE016F5F7F4F86E192E06ADB2A9615
:100D50000FB6F894DEBF0FBECDBFDF91CF911F91CC
:100D60000F9108951F920F920FB60F9211240BB698
:100D70000F922F933F934F935F936F937F938F9334
:100D80009F93AF93BF93EF93FF9385E393E08CDF43
:100D9000FF91EF91BF91AF919F918F917F916F9153
:100DA0005F914F913F912F910F900BBE0F900FBE0F
:100DB0000F901F901895E5E3F3E0108211821282E4
:100DC00013821482158216821782089585E393E0B8
:100DD000FACE08954F925F926F927F92AF92BF9238
:100DE000CF92DF92EF92FF920F931F93CF93DF93F7
:100DF000CDB7DEB729013A019B01AC0124193509B1
:100E00004609570989899A89AB89BC89BC01CD01FA
:100E10006A197B098C099D095ED6A80197012419DE
:100E200035094609570966D6C9018A0D9B1DDF9110
:100E3000CF911F910F91FF90EF90DF90CF90BF90D7
:100E4000AF907F906F905F904F900895CF93DF9316
:100E5000EA01E62FF0E088839F01369527953695C5
:100E60002795ABE7B4E168D69695879520E3280FE0
:100E7000298344E6489F9001499F300D1124CF01FA
:100E8000821B930B9C01ADECBCEC56D696958795D6
:100E90009695879596958795805D8A839F014CD618
:100EA0009695879596958795969587959C01220F9F
:100EB000331F880F991F880F991F880F991F820F62
:100EC000931FE81BF90BE05DEB831C82DF91CF9150
:100ED0000895AC01FB019C01329522952F702327C8
:100EE0003F702327A7E4B3E027D69695879596957C
:100EF00087959695879520E3280F208360E177E218
:100F0000869F9001879F300D969F300D1124CA0156
:100F1000821B930B9C013695279536952795369520
:100F20002795A5ECB0E208D6929582958F70892717
:100F30009F708927805D81839A0136952795369524
:100F4000279536952795F8D5929582958F708927A4
:100F50009F70892768EE73E0869F9001879F300D10
:100F6000969F300D1124CA01821B930B9C0136956C
:100F7000279536952795ABE7B4E1DED5969587950D
:100F8000805D82839A013695279536952795D4D52D
:100F90009695879564E6689F9001699F300D1124AE
:100FA000CA01821B930B9C01ADECBCECC5D5969598
:100FB00087959695879596958795805D83839A0109
:100FC000BBD59695879596958795969587959C011F
:100FD000220F331F880F991F880F991F880F991FA1
:100FE000820F931F481B590B405D4483158208955F
:100FF0005058BB27AA270ED048C139D130F03ED176
:1010000020F031F49F3F11F41EF42EC10EF4E09550
:10101000E7FB24C1E92F4AD180F3BA1762077307AF
:101020008407950718F071F49EF562C10EF4E095FF
:101030000B2EBA2FA02D0B01B90190010C01CA0192
:10104000A0011124FF27591B99F0593F50F4503E3D
:1010500068F11A16F040A22F232F342F4427585F2F
:10106000F3CF469537952795A795F0405395C9F747
:101070007EF41F16BA0B620B730B840BBAF09150FF
:10108000A1F0FF0FBB1F661F771F881FC2F70EC09E
:10109000BA0F621F731F841F48F487957795679571
:1010A000B795F7959E3F08F0B3CF9395880F08F05A
:1010B0009927EE0F9795879508950CD0E6C0DED05E
:1010C00040F0D5D030F021F45F3F19F0C7C0511186
:1010D00010C1CAC0EBD098F39923C9F35523B1F3DB
:1010E000951B550BBB27AA2762177307840738F097
:1010F0009F5F5F4F220F331F441FAA1FA9F333D0F6
:101100000E2E3AF0E0E830D091505040E695001CA9
:10111000CAF729D0FE2F27D0660F771F881FBB1F65
:10112000261737074807AB07B0E809F0BB0B802D3F
:10113000BF01FF2793585F4F2AF09E3F510568F08B
:101140008DC0D7C05F3FECF3983EDCF38695779572
:101150006795B795F7959F5FC9F7880F911D96958D
:10116000879597F90895E1E0660F771F881FBB1FE9
:10117000621773078407BA0720F0621B730B840B96
:10118000BA0BEE1F88F7E095089598D088F09F5726
:1011900090F0B92F9927B751A0F0D1F0660F771FC3
:1011A000881F991F1AF0BA95C9F712C0B13081F0A3
:1011B0009FD0B1E008959CC0672F782F8827B85F33
:1011C00039F0B93FCCF3869577956795B395D9F704
:1011D0003EF490958095709561957F4F8F4F9F4F0E
:1011E0000895E89409C097FB3EF49095809570951A
:1011F00061957F4F8F4F9F4F9923A9F0F92F96E963
:10120000BB279395F695879577956795B795F111D7
:10121000F8CFFAF4BB0F11F460FF1BC06F5F7F4F74
:101220008F4F9F4F16C0882311F096E911C0772386
:1012300021F09EE8872F762F05C0662371F096E88F
:10124000862F70E060E02AF09A95660F771F881F5E
:10125000DAF7880F9695879597F9089597F99F671C
:1012600080E870E060E008959FEF80EC089500242E
:101270000A941616170618060906089500240A94FB
:1012800012161306140605060895092E0394000C81
:1012900011F4882352F0BB0F40F4BF2B11F460FF10
:1012A00004C06F5F7F4F8F4F9F4F089557FD905839
:1012B000440F551F59F05F3F71F04795880F97FB1A
:1012C000991F61F09F3F79F08795089512161306D4
:1012D0001406551FF2CF4695F1DF08C01616170603
:1012E0001806991FF1CF8695710561050894089538
:1012F000E894BB2766277727CB0197F908950BD091
:10130000C4CFB5DF28F0BADF18F0952309F0A6CFD7
:10131000ABCF1124EECFCADFA0F3959FD1F3950F89
:1013200050E0551F629FF001729FBB27F00DB11D69
:10133000639FAA27F00DB11DAA1F649F6627B00DF9
:10134000A11D661F829F2227B00DA11D621F739FE2
:10135000B00DA11D621F839FA00D611D221F749FF0
:101360003327A00D611D231F849F600D211D822F37
:10137000762F6A2F11249F5750408AF0E1F088237E
:101380004AF0EE0FFF1FBB1F661F771F881F91508B
:101390005040A9F79E3F510570F060CFAACF5F3F44
:1013A000ECF3983EDCF3869577956795B795F795BE
:1013B000E7959F5FC1F7FE2B880F911D9695879546
:1013C00097F908952F923F924F925F926F927F927A
:1013D0008F929F92AF92BF92CF92DF92EF92FF9245
:1013E0000F931F93CF93DF93CDB7DEB760970FB600
:1013F000F894DEBF0FBECDBF7C011B016A01FC016A
:1014000017821682838181FF2AC39E012F5F3F4F7F
:101410003901F7019381F10193FD859193FF81914A
:101420001F01882309F417C3853239F493FD859190
:1014300093FF81911F01853231F4B70190E08CD484
:1014400056016501E6CF10E0512C912CFFE1F91512
:10145000D8F08B3279F038F4803279F08332A1F40D
:10146000F92DF0612EC08D3261F0803369F4292DA1
:1014700021602DC0392D3260932E892D8460982EE5
:101480002AC0E92DE86015C097FC2DC020ED280F7B
:101490002A3088F496FE06C03AE0139F200D1124EE
:1014A000122F19C08AE0589E200D1124522EE92DCA
:1014B000E0629E2E10C08E3231F496FCCCC2F92D23
:1014C000F0649F2E08C08C3621F4292D2068922EBE
:1014D00002C0883641F4F10193FD859193FF81911B
:1014E0001F018111B3CF9BEB980F933020F4992DFE
:1014F0009061805E07C09BE9980F933008F059C156
:10150000992D9F7E96FF16E09F73992E853619F4CC
:101510009064992E08C0863621F4392F3068932EB6
:1015200002C01111115097FE07C01C3350F444241F
:101530004394410E27E00BC0183038F027E017E045
:1015400005C027E09CE3492E02C0212F412C560103
:1015500084E0A80EB11CF6016081718182819381C3
:10156000042DA3010BD36C01F981FC87F0FF02C0AD
:10157000F3FF06C091FC06C092FE06C000E205C063
:101580000DE203C00BE201C000E08C858C7019F005
:10159000011143C280C297FE10C04C0CFC85F4FFC1
:1015A00004C08A81813309F44A94141474F528E044
:1015B000241578F588E0482E2CC096FC2AC0812F8F
:1015C00090E08C159D059CF03CEFC3163FEFD306D1
:1015D00074F0892D8068982E0AC0E2E0F0E0EC0FEC
:1015E000FD1FE10FF11D8081803319F4115011119D
:1015F000F4CF97FE0EC044244394410E812F90E017
:10160000C816D9062CF41C1904C04424439401C004
:1016100010E097FE06C01C141D0434F4C6010196A8
:1016200005C085E090E002C081E090E001110196E4
:10163000112331F0212F30E02F5F3F4F820F931F96
:10164000252D30E08217930714F4581A01C0512C4D
:10165000892D897041F4552031F0B70180E290E086
:101660007BD35A94F8CF002321F0B701802F90E06C
:1016700073D393FC08C0552031F0B70180E390E0AC
:101680006BD35A94F8CF97FE4AC04601D7FE02C0EA
:10169000812C912CC60188199909F301E80FF91FD3
:1016A000FE87ED87960124193109388B2F87012F8A
:1016B00010E01195019511093FEF8316930621F46F
:1016C000B7018EE290E048D3C814D9044CF08F855E
:1016D00098898815990524F4ED85FE85818101C0DE
:1016E00080E3F1E08F1A91082D853E852F5F3F4FF3
:1016F0003E872D878016910624F0B70190E02CD309
:10170000DBCFC814D90441F49A81963320F4953381
:1017100019F43C8534FF81E3B70190E048C08A8129
:10172000813319F09C859F7E9C87B70190E014D38C
:10173000111105C094FC16C085E690E015C0B701F4
:101740008EE290E009D31E5F82E001E0080FF30112
:10175000E80FF11D8081B70190E0FED2802F0113C8
:10176000F4CFE8CF85E490E0B701F6D2D7FC06C00D
:10177000C114D10441F4EC85E4FF05C0D194C194B7
:10178000D1088DE201C08BE2B70190E0E5D280E3A1
:101790002AE0C216D1042CF08F5FFAE0CF1AD108EC
:1017A000F7CFB70190E0D8D2B701C601C096D4D226
:1017B00049C1833631F0833779F0833509F052C05F
:1017C0001FC0560132E0A30EB11CF601808189834F
:1017D00001E010E0630111C05601F2E0AF0EB11C50
:1017E000F601C080D18096FE03C0612F70E002C078
:1017F0006FEF7FEFC601A5D28C01F92DFF7713C0E3
:10180000560122E0A20EB11CF601C080D18096FEE6
:1018100003C0612F70E002C06FEF7FEFC60186D278
:101820008C01F92DF0689F2EF3FD18C0852D90E0F6
:101830000817190798F4B70180E290E08DD25A9406
:10184000F5CFF60197FC859197FE81916F01B70165
:1018500090E082D251105A940150110901151105DE
:1018600081F7F0C0843611F0893659F5560197FE9C
:1018700009C024E0A20EB11CF60160817181828151
:1018800093810AC0F2E0AF0EB11CF6016081718154
:10189000072E000C880B990BF92DFF769F2E97FFD2
:1018A00009C090958095709561957F4F8F4F9F4FA0
:1018B000F0689F2E2AE030E0A3018AD2C82EC61815
:1018C0003EC0092D853721F40F7E2AE030E01DC08F
:1018D000097F8F3691F018F4883559F0BCC08037F5
:1018E00019F0883711F0B7C0006104FF09C0046027
:1018F00007C094FE08C0066006C028E030E005C0BE
:1019000020E130E002C020E132E0560107FF09C0CB
:1019100084E0A80EB11CF6016081718182819381FF
:1019200008C0F2E0AF0EB11CF6016081718180E069
:1019300090E0A3014DD2C82EC6180F77902E96FEC8
:101940000BC0092D0E7FC11650F494FE0AC092FC04
:1019500008C0092D0E7E05C0DC2C092D03C0DC2C2F
:1019600001C0D12E04FF0DC0FE01EC0DF11D8081E0
:10197000803311F4097E09C002FF06C0D394D394CA
:1019800004C0802F867809F0D39403FD10C000FFB7
:1019900006C01C2DD51478F4150D1D190CC0D514D6
:1019A00050F4B70180E290E0D7D1D394F8CFD514AA
:1019B00010F45D1801C0512C04FF0FC0B70180E383
:1019C00090E0CAD102FF16C001FD03C088E790E095
:1019D00002C088E590E0B7010CC0802F867851F0F6
:1019E00001FF02C08BE201C080E207FD8DE2B7017A
:1019F00090E0B2D1C11630F4B70180E390E0ACD1F1
:101A00001150F8CFCA94F301EC0DF11D8081B7019C
:101A100090E0A2D1C110F6CF15C0F4E0F51550F555
:101A200084E0581A93FE1EC0011125C02C8523FFA7
:101A300027C00CE810E0392D3071932EF801849105
:101A4000811121C0552009F4FCCCB70180E290E05F
:101A500083D15A94F7CFF7018681978123C08FEF06
:101A60009FEF20C0B70180E290E076D15A945110E8
:101A7000F9CFDACF512CB701802F90E06DD1D6CFBE
:101A800000E910E0D8CF91108052B70190E064D106
:101A90000F5F1F4FD3CF23E0251510F483E0C1CF94
:101AA000512CC4CF60960FB6F894DEBF0FBECDBFE9
:101AB000DF91CF911F910F91FF90EF90DF90CF902A
:101AC000BF90AF909F908F907F906F905F904F905E
:101AD0003F902F900895DB018F939F933CD0BF914F
:101AE000AF91A29F800D911DA39F900DB29F900D6D
:101AF00011240895A1E21A2EAA1BBB1BFD010DC0E3
:101B0000AA1FBB1FEE1FFF1FA217B307E407F507AD
:101B100020F0A21BB30BE40BF50B661F771F881F89
:101B2000991F1A9469F760957095809590959B011F
:101B3000AC01BD01CF010895A29FB001B39FC001C8
:101B4000A39F700D811D1124911DB29F700D811DE9
:101B50001124911D0895F0DFA59F900DB49F900D65
:101B6000A49F800D911D11240895EE0FFF1F0024E6
:101B7000001C0BBE0790F691E02D0994283008F068
:101B800027E03327DA01990F311D87FD9160009618
:101B90006105710539F432602E5F3D9330E32A957B
:101BA000E1F708959F3F30F080387105610509F035
:101BB0003C5F3C5F3D93913008F08068911DDF935E
:101BC000CF931F930F93FF92EF92192F987F9695C3
:101BD000E92F96959695E90FFF27E251FF4F992738
:101BE0003327EE24FF24A701E7010590089407940A
:101BF00028F4360FE71EF81E491F511D660F771F88
:101C0000881F991F0694A1F70590079428F4E70E02
:101C1000F81E491F561FC11D770F881F991F661F89
:101C20000694A1F70590079428F4F80E491F561F53
:101C3000C71FD11D880F991F661F771F0694A1F734
:101C40000590079420F4490F561FC71FD81F990FFE
:101C5000661F771F881F0694A9F784911095177047
:101C600041F0D695C79557954795F794E7941A95FF
:101C7000C1F7E4E9F0E0689415901591359165910C
:101C8000959105907FE27395E118F10A430B560B8D
:101C9000C90BD009C0F7E10CF11E431F561FC91F25
:101CA000D01D7EF4703311F48A95E6CFE89401508C
:101CB00030F0080F0AF40027021708F4202F2395AC
:101CC000022F7A3328F079E37D932A95E9F710C043
:101CD0007D932A9589F6069497956795379517957C
:101CE0001794E118F10A430B560BC90BD00998F071
:101CF00023957E9173957A3308F070E37C932013DB
:101D0000B8F77E9170617D9330F0839571E37D9398
:101D100070E32A95E1F71124EF90FF900F911F9146
:101D2000CF91DF91992787FD90950895FC0105904B
:101D3000615070400110D8F7809590958E0F9F1FCD
:101D40000895FC016150704001900110D8F7809512
:101D500090958E0F9F1F08950F931F93CF93DF933E
:101D6000FB01238121FD03C08FEF9FEF2CC022FFD9
:101D700016C046815781248135814217530744F4A8
:101D8000A081B1819D012F5F3F4F318320838C93D0
:101D9000268137812F5F3F4F3783268314C08B0105
:101DA000EC01FB010084F185E02D0995892BE1F61A
:101DB000D80116968D919C911797019617969C9332
:101DC0008E931697CE01DF91CF911F910F910895B9
:101DD000FA01AA27283051F1203181F1E8946F935C
:101DE0006E7F6E5F7F4F8F4F9F4FAF4FB1E03ED002
:101DF000B4E03CD0670F781F891F9A1FA11D680FA0
:101E0000791F8A1F911DA11D6A0F711D811D911DD2
:101E1000A11D20D009F468943F912AE0269F112447
:101E20003019305D3193DEF6CF010895462F4770AB
:101E3000405D4193B3E00FD0C9F7F6CF462F4F7006
:101E4000405D4A3318F0495D31FD4052419302D064
:101E5000A9F7EACFB4E0A69597958795779567950A
:101E6000BA95C9F700976105710508959B01AC010A
:101E70000A2E06945795479537952795BA95C9F731
:101E8000620F731F841F951FA01D089510E0CCECF6
:101E9000D0E003C0FE0169DE2196CD3CD107D1F729
:041EA000F894FFCFE4
:101EA40021203A2068656C70206D657373616765E5
:101EB4000A0040203A2073686F772D75702073658F
:101EC4006E73696E67206163746976697479206FD3
:101ED4006E2F6F66660A0023203A206D616E75616D
:101EE4006C206576656E74206D6F6465206F6E2F4F
:101EF4006F66660A002B203A20696E63726561730F
:101F04006520696E74657276616C0A002D203A2032
:101F1400646563726561736520696E746572766168
:101F24006C0A000A73686F772D7570206469736199
:101F3400626C65640A000A73686F772D757020659A
:101F44006E61626C65640A000A65786974206D616B
:101F54006E75616C206D6F64650A000A656E746548
:101F640072206D616E75616C206D6F64650A000A84
:101F740068656C6C6F20776F726C64210A00440092
:101F840052000A696E74657276616C206973200070
:101F94000A696E74657276616C206D757374206263
:101FA400652067726561746572207468616E2031A2
:041FB4000A005400CB
:00000001FF
